:100000000C94FB000C9425010C9425010C94250103
:100010000C9425010C9425010C9425010C942501C8
:100020000C9425010C9425010C9425010C942501B8
:100030000C9425010C9425010C9425010C942501A8
:100040000C9425010C9425010C9425010C94250198
:100050000C9425010C9425010C9425010C94860523
:100060000C9425010C94FA050C94D0050C942501F0
:100070000C9425010C9425010C9425010C94250168
:100080000C9425010C9425010C9425010C94250158
:100090000C9425010C9425010C9425010C94540416
:1000A0000C9425010C9425010C9425010C94250138
:1000B0000C9425010C9425010C9425010C94250128
:1000C0000C9425010C9425010C9425010C94250118
:1000D0000C9425010C9425010C9425010C94250108
:1000E0000C942501B001B301A201A601AA01EA0105
:1000F000B701BB01C101C501C901CF01D301D701BE
:10010000EA01DD01E101E5010000220025002800EF
:100110002B002E003100340002010000050108010F
:100120000B0105050505070508080808020202027B
:100130000A0A080804040404010101010101010183
:100140000303030303030303040707070C0C0C0C4E
:100150000C0C0C0C02020202060606060606060637
:100160000B0B0B0B0B0B0B0B0102102020080810C4
:100170002040102040800201020108040201010217
:1001800004081020408080402010080402018004F0
:10019000020180402010080402010804020101024B
:1001A0000408102040800102040810204080000054
:1001B0000A0B02090C0D0E080703040100000000E1
:1001C000000000000000000000000000000000002F
:1001D00000000000000000000000121110000000EC
:1001E000000000000000000000000000000000000F
:1001F00000000000300611241FBECFEFD1E2DEBFA9
:10020000CDBF12E0A0E0B2E0E4E9F0E100E00BBF16
:1002100002C007900D92A432B107D9F723E0A4E2FF
:10022000B2E001C01D92AA38B207E1F710E0CBEFAF
:10023000D0E004C02197FE010E943A08CA3FD107CE
:10024000C9F70E9469060C9448080C940000382FE6
:100250002091E0029091DF02213208F049C08091A4
:10026000BC028111FCCF42E04093BC023093BB0240
:100270003FEF3093BA021092B9022093B802AFEB6D
:10028000B2E048E952E0FA013E2F341B321718F46D
:100290003D913193F9CF1092970220919702990FD7
:1002A000922B9093970290919602913061F4109264
:1002B0009602909197029093BB009091BC0093FDA1
:1002C000F8CF95EC01C095EE9093BC009091BC02E4
:1002D0009230E1F39091BA029F3F79F08091BA0297
:1002E000803241F08091BA02803331F084E005C061
:1002F00081E003C082E001C083E01092BE02109250
:10030000E0021092BD02089590E0FC01E255FE4F1C
:100310004491FC01E859FE4F2491FC01EE5DFE4F33
:100320008491882309F464C0442309F453C050E045
:10033000FA013197E231F10508F04CC0EE58FF4F59
:100340000C943A08909180009F7707C090918000AC
:100350009F7D03C090918000977F909380003AC06A
:1003600094B59F7702C094B59F7D94BD33C09091A2
:10037000B0009F7703C09091B0009F7D9093B00034
:1003800029C0909190009F7707C0909190009F7D29
:1003900003C090919000977F909390001BC0909124
:1003A000A0009F7707C09091A0009F7D03C090910F
:1003B000A000977F9093A0000DC0909120019F779F
:1003C00007C0909120019F7D03C090912001977FED
:1003D00090932001E82FF0E0EE0FFF1FE85FFE4F43
:1003E000A591B4918FB7F894EC912E2B2C938FBFDD
:1003F000089585ED8093BC008091BC0084FDFCCF06
:100400001092BC02089540917102262F30E0240F13
:10041000311D21323105DCF42091BC022430C9F4B5
:10042000FC0180E090E0861758F430917102219130
:10043000DC01A15BBD4FA30FB11D2C930196F3CF3F
:1004400080917102680F6093710280E0089581E0ED
:10045000089582E008950895E0914E0280914D0242
:10046000E81730F4F0E0E35DFD4F808190E00895FF
:100470008FEF9FEF089590914E0280914D02981753
:1004800050F4E92FF0E0E35DFD4F208130E09F5F05
:1004900090934E0202C02FEF3FEFC9010895809163
:1004A0004D0290E020914E02821B91090895CF9257
:1004B000DF92EF92FF920F931F93CF93DF937C0114
:1004C000262F972F8A018091BD02882391F0C62F95
:1004D000D72F6E01C40ED51ECC15DD0571F06991C4
:1004E000D701ED91FC910190F081E02DC7010995B4
:1004F000F3CF642F822F0E940302C801DF91CF91B6
:100500001F910F91FF90EF90DF90CF900895CF93C0
:10051000DF931F92CDB7DEB769832091BD022223FE
:10052000D1F02091E002203240F021E030E0FC01E7
:100530003383228380E090E015C08091BE02E82FD3
:10054000F0E0E154FD4F998190838F5F8093BE026C
:100550008093E00205C061E0CE0101960E94030293
:1005600081E090E00F90DF91CF9108953FB7F8942C
:100570008091290290912A02A0912B02B0912C0225
:1005800026B5A89B05C02F3F19F00196A11DB11DEE
:100590003FBFBA2FA92F982F8827820F911DA11D29
:1005A000B11DBC01CD0142E0660F771F881F991F66
:1005B0004A95D1F70895CF92DF92EF92FF920F9371
:1005C0001F93CF93DF936C017A018B01C0E0D0E0E1
:1005D000CE15DF0589F0D8016D918D01D601ED9121
:1005E000FC910190F081E02DC6010995892B11F451
:1005F0007E0102C02196ECCFC701DF91CF911F9100
:100600000F91FF90EF90DF90CF900895FC01918DB6
:10061000828D981761F0828DDF01A80FB11D5D9664
:100620008C91928D9F5F9F73928F90E008958FEFD2
:100630009FEF0895FC01918D828D981731F0828D86
:10064000E80FF11D858D90E008958FEF9FEF0895DD
:10065000FC01918D228D892F90E0805C9F4F821B41
:1006600091098F73992708958DEE92E00E942803D7
:1006700021E0892B09F420E0822F0895FC01848D6C
:10068000DF01A80FB11DA35ABF4F2C91848D90E0BC
:1006900001968F739927848FA689B7892C93A08997
:1006A000B1898C9180648C93938D848D981306C04E
:1006B0000288F389E02D80818F7D80830895EF92F9
:1006C000FF920F931F93CF93DF93EC0181E0888F0C
:1006D0009B8D8C8D981305C0E889F989808185FDF3
:1006E00024C0F62E0B8D10E00F5F1F4F0F731127E4
:1006F000E02E8C8DE8120CC00FB607FCFACFE8890B
:10070000F989808185FFF5CFCE010E943E03F1CFAC
:100710008B8DFE01E80FF11DE35AFF4FF0820B8F26
:10072000EA89FB898081806207C0EE89FF89608346
:10073000E889F98980818064808381E090E0DF919D
:10074000CF911F910F91FF90EF900895CF93DF937A
:10075000EC01888D8823C9F0EA89FB89808185FDB9
:1007600005C0A889B9898C9186FD0FC00FB607FC1A
:10077000F5CF808185FFF2CFA889B9898C9185FF5B
:10078000EDCFCE010E943E03E7CFDF91CF910895D8
:1007900080E090E0892B21F00E943403811125C074
:1007A00080E090E0892B41F080E090E0892B21F0FF
:1007B0000E94000081111CC080E090E0892B41F074
:1007C00080E090E0892B21F00E940000811113C08D
:1007D00080E090E0892BA1F080E090E0892B81F00F
:1007E0000E94000081110AC008950E940000D8CF25
:1007F0000E940000E1CF0E940000EACF0C940000AC
:1008000008958F929F92AF92BF920F931F93CF93B1
:10081000DF93CDB7DEB7A1970FB6F894DEBF0FBE5A
:10082000CDBF19A2423008F44AE08E010F5D1F4F80
:10083000842E912CA12CB12CA50194010E941808A2
:10084000E62FB901CA0101501109EA3014F4E05D44
:1008500001C0E95CD801EC93232B242B252B61F7F5
:100860000115110571F0F80101900020E9F73197A9
:10087000AF01401B510BB8018DEE92E00E94DB02EC
:1008800002C080E090E0A1960FB6F894DEBF0FBEE4
:10089000CDBFDF91CF911F910F91BF90AF909F90EF
:1008A0008F9008950E9443081F920F920FB60F92E7
:1008B00011240BB60F922F933F934F935F936F9337
:1008C0007F938F939F93AF93BF93EF93FF93809109
:1008D000B900887F803609F49CC068F5883209F435
:1008E0005BC090F4803109F454C038F4882309F4D3
:1008F000F6C0883009F44DC0F6C0883109F44CC008
:10090000803209F45DC0EFC0803409F468C048F457
:10091000803309F455C0883309F0E5C08093BA02EA
:10092000D8C0803509F44FC0883509F45DC08834DB
:1009300009F0D9C0D6C0883909F4C7C0A8F48837EF
:1009400009F467C038F4883609F463C0803709F4C5
:1009500060C0C9C0883809F4B8C0803909F45FC0E4
:10096000803809F0C0C05BC0803B09F486C038F411
:10097000803A09F466C0883A09F47FC0B4C0803C6C
:1009800009F4A7C0883C09F4A4C0883B09F48AC0D4
:10099000AAC08091970210C09091B9028091B802CC
:1009A000981770F5E091B90281E08E0F8093B9023B
:1009B000F0E0E856FD4F80818093BB0085EC86C057
:1009C0008093BA028EC0E091B90281E08E0F8093CD
:1009D000B9028091BB00F0E0E856FD4F8083909112
:1009E000B9028091B8026EC0E091B90281E08E0F29
:1009F0008093B9028091BB00F0E0E856FD4F808300
:100A00008091BB0281116DC081E08093960284EADF
:100A100061C083E08093BC0210929502CFCF809199
:100A20009502803208F051C0E091950281E08E0F6E
:100A3000809395028091BB00F0E0EB58FD4F8083DE
:100A4000BDCF85EC8093BC001092BC0280919502D2
:100A5000803230F4E0919502F0E0EB58FD4F1082C7
:100A60006091950270E0E0917302F091740285E765
:100A700092E009951092950236C084E08093BC0202
:100A80001092720210927102E0916F02F091700266
:100A9000099580917102811105C081E080937102F6
:100AA00010924F02E091720281E08E0F80937202E9
:100AB000F0E0E15BFD4F80818093BB00909172027A
:100AC00080917102981708F479CF85E88093BC0073
:100AD0000AC085EC8093BC001092BC0204C0109246
:100AE000BA020E94F901FF91EF91BF91AF919F91DE
:100AF0008F917F916F915F914F913F912F910F90C7
:100B00000BBE0F900FBE0F901F9018951F920F9263
:100B10000FB60F9211242F933F938F939F93AF9310
:100B2000BF938091250290912602A0912702B09157
:100B300028023091240223E0230F2D3720F4019660
:100B4000A11DB11D05C026E8230F0296A11DB11DF0
:100B5000209324028093250290932602A0932702DB
:100B6000B09328028091290290912A02A0912B0231
:100B7000B0912C020196A11DB11D80932902909382
:100B80002A02A0932B02B0932C02BF91AF919F91A8
:100B90008F913F912F910F900FBE0F901F9018953E
:100BA0001F920F920FB60F9211240BB60F922F9334
:100BB0003F934F935F936F937F938F939F93AF93E5
:100BC000BF93EF93FF938DEE92E00E943E03FF915F
:100BD000EF91BF91AF919F918F917F916F915F91B5
:100BE0004F913F912F910F900BBE0F900FBE0F9022
:100BF0001F9018951F920F920FB60F9211240BB6EB
:100C00000F922F938F939F93EF93FF93E091FD02A9
:100C1000F091FE028081E0910303F091040382FDD4
:100C200012C09081809106038F5F8F73209107031C
:100C3000821751F0E0910603F0E0E351FD4F958FEC
:100C40008093060301C08081FF91EF919F918F9166
:100C50002F910F900BBE0F900FBE0F901F90189505
:100C6000E1EEF2E01382128288EE93E0A0E0B0E0C1
:100C700084839583A683B78324E032E03183208385
:100C8000EDEEF2E01382128284839583A683B7830C
:100C900084E192E09183808385EC90E0958784875E
:100CA00084EC90E09787868780EC90E0918B808B36
:100CB00081EC90E0938B828B82EC90E0958B848B1F
:100CC00086EC90E0978B868B118E128E138E148E8D
:100CD0000895789484B5826084BD84B5816084BDB4
:100CE00085B5826085BD85B5816085BD80916E00CA
:100CF000816080936E0010928100809181008260FB
:100D00008093810080918100816080938100809137
:100D100080008160809380008091B1008460809326
:100D2000B1008091B00081608093B000809191000B
:100D30008260809391008091910081608093910006
:100D4000809190008160809390008091A1008260EA
:100D50008093A1008091A10081608093A100809187
:100D6000A00081608093A000809121018260809327
:100D700021018091210181608093210180912001D6
:100D800081608093200180917A00846080937A0052
:100D900080917A00826080937A0080917A008160ED
:100DA00080937A0080917A00806880937A00109214
:100DB000C10010924E0210924D021092BE0210928B
:100DC000E0021092BC02C1E0C093BB0210929602F6
:100DD00084E10E94840185E10E9484018091B90030
:100DE0008E7F8093B9008091B9008D7F8093B90088
:100DF00088E48093B80085E48093BC00E091FD0214
:100E0000F091FE0282E08083E091F902F091FA0213
:100E10001082E091FB02F091FC028FEC8083109233
:100E20000503E0910103F091020386E08083E091E5
:100E3000FF02F0910003808180618083E091FF02D6
:100E4000F0910003808188608083E091FF02F0913F
:100E50000003808180688083E091FF02F0910003AD
:100E600080818F7D8083C093BD0288E68093DF02FE
:100E70001092BE021092E0026BE681EE92E00E94B8
:100E8000870260E081EE92E00E94870281E00E948A
:100E90002701D8E699249A9495E0892E25EE722EA2
:100EA00035EC632E4DE2A42E42E0B42EC093BD0279
:100EB000D093DF021092BE021092E00263E481EE52
:100EC00092E00E94870280E00E9427018091BC028C
:100ED0008111FCCFC093BC02C093BB029092BA02B6
:100EE0001092B9028092B802C09397028091970243
:100EF000806D8093970280919602813069F4109200
:100F00009602809197028093BB008091BC0083FD84
:100F1000F8CF6092BC0002C07092BC008091BC020D
:100F20008130E1F38091B902863018F48091B902E2
:100F300001C086E0A8E9B2E0EDE2F2E09E2F9A1946
:100F4000981718F49D919193F9CF10924E028093C7
:100F50004D0281EE92E00E943B02F82E81EE92E07B
:100F60000E943B021F2D00E06801C82AD92A81EEA9
:100F700092E00E943B0281EE92E00E943B0281EEF1
:100F800092E00E943B0281EE92E00E943B020D2C17
:100F9000000CEE08FF08F7FE14C0E091ED02F0919E
:100FA000EE020190F081E02D6DE28DEE92E0099568
:100FB00066277727CB016C197D098E099F094AE0C6
:100FC00003C04AE0C701B6010E94010442E050E0BC
:100FD00060E272E08DEE92E00E94DB020E94B602B7
:100FE0001B012C0188EEC82E83E0D82EE12CF12CB9
:100FF0000E94B602DC01CB0182199309A409B5094C
:10100000883E9340A105B10558F021E0C21AD108ED
:10101000E108F10888EE280E83E0381E411C511CBF
:10102000C114D104E104F10419F70E94C8033ECFB2
:10103000A1E21A2EAA1BBB1BFD010DC0AA1FBB1FDC
:10104000EE1FFF1FA217B307E407F50720F0A21B4E
:10105000B30BE40BF50B661F771F881F991F1A94BB
:1010600069F760957095809590959B01AC01BD01E5
:10107000CF010895EE0FFF1F0024001C0BBE079048
:10108000F691E02D099481E090E0F8940C944808E2
:04109000F894FFCF02
:1010940000000000870257024F023B022C022B0281
:1010A400000000005F03DB02280306031A03A60303
:0410B4000D0A000021
:00000001FF
