:100000000C9458000C9480000C9480000C94800098
:100010000C9480000C9480000C9480000C94800060
:100020000C9480000C9480000C9480000C94800050
:100030000C9480000C9480000C9480000C94800040
:100040000C947F040C9480000C94EF040C94C9046D
:100050000C9480000C9480000C9480000C94800020
:100060000C9451030C94800000000000250028002F
:100070002B00040404040404040402020202020229
:10008000030303030303010204081020408001025C
:1000900004081020010204081020000000080002DB
:1000A000010000030407000000000000000021051B
:1000B00011241FBECFEFD8E0DEBFCDBF11E0A0E01E
:1000C000B1E0E6E1FEE002C005900D92A432B10776
:1000D000D9F722E0A4E2B1E001C01D92AA38B2072C
:1000E000E1F710E0C8E5D0E004C02197FE010E94CE
:1000F000FE06C735D107C9F70E945A050C940907B7
:100100000C940000382F2091E0019091DF01213202
:1001100008F049C08091BC018111FCCF42E04093BE
:10012000BC013093BB013FEF3093BA011092B9018B
:100130002093B801AFEBB1E048E951E0FA013E2F5E
:10014000341B321718F43D913193F9CF1092970177
:1001500020919701990F922B90939701909196017E
:10016000913061F410929601909197019093BB00A9
:100170009091BC0093FDF8CF95EC01C095EE909363
:10018000BC009091BC019230E1F39091BA019F3F85
:1001900079F08091BA01803241F08091BA018033C8
:1001A00031F084E005C081E003C082E001C083E05B
:1001B0001092BE011092E0011092BD01089590E0EE
:1001C000FC01E656FF4F2491FC01EA57FF4F3491A2
:1001D000FC01EE58FF4FE491EE23B1F1222339F1F7
:1001E000233091F038F42130A9F0223001F584B5A4
:1001F0008F7D12C0273091F02830A1F02430B9F45F
:10020000809180008F7D03C0809180008F778093E4
:1002100080000DC084B58F7784BD09C08091B00087
:100220008F7703C08091B0008F7D8093B000F0E0A5
:10023000EE0FFF1FE859FF4FA591B4918FB7F894C7
:10024000EC913E2B3C938FBF089585ED8093BC00CD
:100250008091BC0084FDFCCF1092BC0108954091B8
:100260007101262F30E0240F311D21323105DCF4DD
:100270002091BC012430C9F4FC0180E090E0861795
:1002800058F4309171012191DC01A15BBE4FA30FA5
:10029000B11D2C930196F3CF80917101680F60938B
:1002A000710180E0089581E0089582E00895089545
:1002B000E0914E0180914D01E81730F4F0E0E35DEC
:1002C000FE4F808190E008958FEF9FEF0895909109
:1002D0004E0180914D01981750F4E92FF0E0E35D55
:1002E000FE4F208130E09F5F90934E0102C02FEFC0
:1002F0003FEFC901089580914D0190E020914E019A
:10030000821B91090895CF92DF92EF92FF920F9393
:100310001F93CF93DF937C01262F972F8A01809123
:10032000BD01882391F0C62FD72F6E01C40ED51EB4
:10033000CC15DD0571F06991D701ED91FC9101902B
:10034000F081E02DC7010995F3CF642F822F0E9421
:100350002F01C801DF91CF911F910F91FF90EF9076
:10036000DF90CF900895CF93DF931F92CDB7DEB784
:1003700069832091BD012223D1F02091E001203238
:1003800040F021E030E0FC013383228380E090E004
:1003900015C08091BE01E82FF0E0E154FE4F998135
:1003A00090838F5F8093BE018093E00105C061E080
:1003B000CE0101960E942F0181E090E00F90DF9125
:1003C000CF9108953FB7F8948091290190912A0127
:1003D000A0912B01B0912C0126B5A89B05C02F3F01
:1003E00019F00196A11DB11D3FBFBA2FA92F982F5B
:1003F0008827820F911DA11DB11DBC01CD0142E0D6
:10040000660F771F881F991F4A95D1F70895CF92DD
:10041000DF92EF92FF920F931F93CF93DF936C01C4
:100420007A018B01C0E0D0E0CE15DF0589F0D8015C
:100430006D918D01D601ED91FC910190F081E02D3F
:10044000C6010995892B11F47E0102C02196ECCFDB
:10045000C701DF91CF911F910F91FF90EF90DF9037
:10046000CF900895FC01918D828D981761F0828D57
:10047000DF01A80FB11D5D968C91928D9F5F9F73D8
:10048000928F90E008958FEF9FEF0895FC01918D7A
:10049000828D981731F0828DE80FF11D858D90E0E7
:1004A00008958FEF9FEF0895FC01918D228D892F84
:1004B00090E0805C9F4F821B91098F73992708956C
:1004C0008DEE91E00E94540221E0892B09F420E096
:1004D000822F0895FC01848DDF01A80FB11DA35A5E
:1004E000BF4F2C91848D90E001968F739927848F54
:1004F000A689B7892C93A089B1898C9180648C934B
:10050000938D848D981306C00288F389E02D808135
:100510008F7D80830895EF92FF920F931F93CF9367
:10052000DF93EC0181E0888F9B8D8C8D981305C043
:10053000E889F989808185FD24C0F62E0B8D10E0B5
:100540000F5F1F4F0F731127E02E8C8DE8120CC028
:100550000FB607FCFACFE889F989808185FFF5CFCE
:10056000CE010E946A02F1CF8B8DFE01E80FF11DD2
:10057000E35AFF4FF0820B8FEA89FB89808180620A
:1005800007C0EE89FF896083E889F98980818064EA
:10059000808381E090E0DF91CF911F910F91FF90D8
:1005A000EF900895CF93DF93EC01888D8823C9F0F5
:1005B000EA89FB89808185FD05C0A889B9898C916C
:1005C00086FD0FC00FB607FCF5CF808185FFF2CF07
:1005D000A889B9898C9185FFEDCFCE010E946A026E
:1005E000E7CFDF91CF91089580E090E0892B29F04B
:1005F0000E94600281110C94000008958F929F92D6
:10060000AF92BF920F931F93CF93DF93CDB7DEB717
:10061000A1970FB6F894DEBF0FBECDBF19A242302E
:1006200008F44AE08E010F5D1F4F842E912CA12CFF
:10063000B12CA50194010E94DC06E62FB901CA0184
:1006400001501109EA3014F4E05D01C0E95CD80101
:10065000EC93232B242B252B61F70115110571F049
:10066000F80101900020E9F73197AF01401B510BD1
:10067000B8018DEE91E00E94070202C080E090E098
:10068000A1960FB6F894DEBF0FBECDBFDF91CF911C
:100690001F910F91BF90AF909F908F9008950E94EF
:1006A00004071F920F920FB60F9211242F933F93BE
:1006B0004F935F936F937F938F939F93AF93BF936A
:1006C000EF93FF938091B900887F803609F49CC036
:1006D00068F5883209F45BC090F4803109F454C0A5
:1006E00038F4882309F4F6C0883009F44DC0F6C008
:1006F000883109F44CC0803209F45DC0EFC0803409
:1007000009F468C048F4803309F455C0883309F00F
:10071000E5C08093BA01D8C0803509F44FC0883550
:1007200009F45DC0883409F0D9C0D6C0883909F40D
:10073000C7C0A8F4883709F467C038F4883609F4CC
:1007400063C0803709F460C0C9C0883809F4B8C0F4
:10075000803909F45FC0803809F0C0C05BC0803BBD
:1007600009F486C038F4803A09F466C0883A09F47E
:100770007FC0B4C0803C09F4A7C0883C09F4A4C081
:10078000883B09F48AC0AAC08091970110C090915B
:10079000B9018091B801981770F5E091B90181E035
:1007A0008E0F8093B901F0E0E856FE4F8081809370
:1007B000BB0085EC86C08093BA018EC0E091B90180
:1007C00081E08E0F8093B9018091BB00F0E0E85684
:1007D000FE4F80839091B9018091B8016EC0E09185
:1007E000B90181E08E0F8093B9018091BB00F0E0E8
:1007F000E856FE4F80838091BB0181116DC081E07E
:100800008093960184EA61C083E08093BC011092DA
:100810009501CFCF80919501803208F051C0E091D1
:10082000950181E08E0F809395018091BB00F0E0EF
:10083000EB58FE4F8083BDCF85EC8093BC001092B7
:10084000BC0180919501803230F4E0919501F0E097
:10085000EB58FE4F10826091950170E0E0917301BA
:10086000F091740185E791E009951092950136C0E9
:1008700084E08093BC011092720110927101E091AA
:100880006F01F0917001099580917101811105C08E
:1008900081E08093710110924F01E091720181E03B
:1008A0008E0F80937201F0E0E15BFE4F80818093B8
:1008B000BB009091720180917101981708F479CF73
:1008C00085E88093BC000AC085EC8093BC00109240
:1008D000BC0104C01092BA010E942501FF91EF9162
:1008E000BF91AF919F918F917F916F915F914F9148
:1008F0003F912F910F900FBE0F901F9018951F9250
:100900000F920FB60F9211242F933F938F939F93C3
:10091000AF93BF938091250190912601A09127016B
:10092000B09128013091240123E0230F2D3720F4CA
:100930000196A11DB11D05C026E8230F0296A11D39
:10094000B11D209324018093250190932601A0934B
:100950002701B09328018091290190912A01A0914B
:100960002B01B0912C010196A11DB11D809329018D
:1009700090932A01A0932B01B0932C01BF91AF91CA
:100980009F918F913F912F910F900FBE0F901F90CD
:1009900018951F920F920FB60F9211242F933F9329
:1009A0004F935F936F937F938F939F93AF93BF9377
:1009B000EF93FF938DEE91E00E946A02FF91EF9119
:1009C000BF91AF919F918F917F916F915F914F9167
:1009D0003F912F910F900FBE0F901F9018951F926F
:1009E0000F920FB60F9211242F938F939F93EF9333
:1009F000FF93E091FD01F091FE018081E0910302FF
:100A0000F091040282FD12C09081809106028F5FF6
:100A10008F7320910702821751F0E0910602F0E0F7
:100A2000E351FE4F958F8093060201C08081FF91B4
:100A3000EF919F918F912F910F900FBE0F901F906C
:100A40001895E1EEF1E01382128288EE93E0A0E0C7
:100A5000B0E084839583A683B78324E031E03183BB
:100A60002083EDEEF1E01382128284839583A683C6
:100A7000B78384E191E09183808385EC90E0958752
:100A8000848784EC90E09787868780EC90E0918B58
:100A9000808B81EC90E0938B828B82EC90E0958B45
:100AA000848B86EC90E0978B868B118E128E138E42
:100AB000148E0895789484B5826084BD84B5816075
:100AC00084BD85B5826085BD85B5816085BD809119
:100AD0006E00816080936E00109281008091810091
:100AE0008260809381008091810081608093810089
:100AF000809180008160809380008091B10084604B
:100B00008093B1008091B00081608093B0008091AB
:100B10007A00846080937A0080917A00826080936A
:100B20007A0080917A00816080937A0080917A00C7
:100B3000806880937A001092C10010924E0110924A
:100B40004D011092BE011092E0011092BC01C1E073
:100B5000C093BB011092960182E10E94DF0083E105
:100B60000E94DF008091B9008E7F8093B900809150
:100B7000B9008D7F8093B90088E48093B80085E444
:100B80008093BC00E091FD01F091FE0182E0808342
:100B9000E091F901F091FA011082E091FB01F091EE
:100BA000FC018FEC808310920502E0910102F0912C
:100BB000020286E08083E091FF01F09100028081D3
:100BC00080618083E091FF01F09100028081886064
:100BD0008083E091FF01F091000280818068808332
:100BE000E091FF01F091000280818F7D8083C093AE
:100BF000BD0188E68093DF011092BE011092E001F2
:100C00006BE681EE91E00E94B30160E081EE91E03D
:100C10000E94B30181E00E948200D8E699249A9450
:100C200095E0892E25EE722E35EC632E4DE2A42E32
:100C300041E0B42EC093BD01D093DF011092BE01FC
:100C40001092E00163E481EE91E00E94B30180E044
:100C50000E9482008091BC018111FCCFC093BC0135
:100C6000C093BB019092BA011092B9018092B80171
:100C7000C093970180919701806D80939701809137
:100C80009601813069F410929601809197018093CA
:100C9000BB008091BC0083FDF8CF6092BC0002C015
:100CA0007092BC008091BC018130E1F38091B90168
:100CB000863018F48091B90101C086E0A8E9B1E05E
:100CC000EDE2F1E09E2F9A19981718F49D919193F7
:100CD000F9CF10924E0180934D0181EE91E00E9478
:100CE0006701F82E81EE91E00E9467011F2D00E060
:100CF0006801C82AD92A81EE91E00E94670181EE3D
:100D000091E00E94670181EE91E00E94670181EE0F
:100D100091E00E9467010D2C000CEE08FF08F7FE21
:100D200014C0E091ED01F091EE010190F081E02D11
:100D30006DE28DEE91E0099566277727CB016C195E
:100D40007D098E099F094AE003C04AE0C701B60148
:100D50000E94FE0242E050E060E271E08DEE91E020
:100D60000E9407020E94E2011B012C0188EEC82E9E
:100D700083E0D82EE12CF12C0E94E201DC01CB01B2
:100D800082199309A409B509883E9340A105B105CC
:100D900058F021E0C21AD108E108F10888EE280EC7
:100DA00083E0381E411C511CC114D104E104F1043C
:100DB00019F70E94F4023ECFA1E21A2EAA1BBB1B18
:100DC000FD010DC0AA1FBB1FEE1FFF1FA217B30717
:100DD000E407F50720F0A21BB30BE40BF50B661F2D
:100DE000771F881F991F1A9469F7609570958095F1
:100DF00090959B01AC01BD01CF010895EE0FFF1F3F
:100E00000590F491E02D099481E090E0F8940C9421
:060E10000907F894FFCF72
:100E160000000000B30183017B01670158015701FF
:100E2600000000008B020702540232024602D20280
:040E36000D0A0000A1
:00000001FF
