:100000000C9439010C946A010C946A010C946A01F5
:100010000C946A010C946A010C946A010C946A01B4
:100020000C946A010C946A010C946A010C946A01A4
:100030000C946A010C946A010C946A010C946A0194
:100040000C946A010C946A010C946A010C946A0184
:100050000C946A010C946A010C946A010C944C0291
:100060000C946A010C9425050C9415060C946A01F5
:100070000C946A010C946A010C946A010C946A0154
:100080000C946A010C946A010C946A010C946A0144
:100090000C9459050C9454060C946A010C941F0A94
:1000A0000C946A010C946A010C946A010C946A0124
:1000B0000C946A010C946A010C946A010C946A0114
:1000C0000C946A010C946A010C946A010C948D05DD
:1000D0000C9493060C946A010C94C1050C94D206FE
:1000E0000C946A01670B6A0B5D0B610BA10B6E0B25
:1000F000720B780B7C0B800B860B8A0B8E0BA10B83
:10010000940B980B9C0B0C9481040C946E0B0C9428
:1001100087080C949D040C949C0B0C948E0B0C94EF
:10012000980B0C94C8040C94670B0C9473080C94F3
:100130006B080C9471040C9497080C94800B0C942D
:10014000610B0C947C0B0C94780B0C94860B0C9428
:100150006A0B0C94720B0C94A10B0C9443030C943B
:10016000F4050C948A0B0C945D0B0C94C7080C944A
:10017000940B0C94BD040C9496080C9499070C9461
:100180003E090000090A02080B0C0D0706030401D2
:10019000000000000000000000000000000000005F
:1001A000000000000000000000000000000011102E
:1001B0000F00000000000000000000000000000030
:1001C00000000000000000000102102020080810BC
:1001D00020401020408002010201080402010102B7
:1001E0000408102040808040201008040201800490
:1001F00002018040201008040201080402010102EB
:1002000004081020408001020408102040800505E9
:100210000505070508080808020202020A0A08087C
:1002200004040404010101010101010103030303AA
:1002300003030303040707070C0C0C0C0C0C0C0C39
:100240000202020206060606060606060B0B0B0B4A
:100250000B0B0B0B00002200250028002B002E00AA
:100260003100340002010000050108010B0199076B
:100270003E0911241FBECFEFD1E2DEBFCDBF00E0AB
:100280000CBF12E0A0E0B2E0E2E0F8E100E00BBF5A
:1002900002C007900D92A832B107D9F725E0A8E275
:1002A000B2E001C01D92A939B207E1F711E0C9E33C
:1002B000D1E000E006C021970109802FFE010E94D5
:1002C000F70BC733D10780E00807A9F70E94640441
:1002D0000C94D20B0C940000DC01ED91FC91019088
:1002E000F081E02D1994CF93DF93D82FC62F69E1C9
:1002F00070E089ED94E00E9429096D2F89ED94E06A
:100300000E94C7086C2F89ED94E00E94C70861E045
:1003100089ED94E0DF91CF910C942B0968E083E2A2
:100320000E94730167E780E20C947301DF92EF9201
:10033000FF920F931F93CF93DF9300D000D0CDB7E0
:10034000DEB769E170E089ED94E00E94290968EA6E
:1003500070E089ED94E00E946C0161E089ED94E029
:100360000E942B0921E030E046E050E069E170E0B6
:1003700089ED94E00E941D0989ED94E00E947308C4
:10038000182F89ED94E00E94730820E030E0312FAF
:100390007901E82AF92A89ED94E00E947308182F60
:1003A00089ED94E00E94730840E050E0512F8A01EB
:1003B000082B192B89ED94E00E947308D82E89ED43
:1003C00094E00E947308FA82E9821C830B8360E048
:1003D00070E07D2D862B972B9E838D832E2D3A8169
:1003E000402F5C81682F7E8180E090E026960FB6DA
:1003F000F894DEBF0FBECDBFDF91CF911F910F915B
:10040000FF90EF90DF90089589ED94E00E94060937
:1004100040E855E260E070E087E992E00E94110751
:100420000C948E01CF93DF9300D000D0CDB7DEB710
:1004300064EF71E080E090E00E94BB020E949601B0
:1004400029833A834B835C836D837E8360E072E013
:1004500087E992E00E949B0369817A8140E150E044
:1004600087E992E00E944D046B817C8140E150E07D
:1004700087E992E00E944D046D817E8140E150E069
:1004800087E992E026960FB6F894DEBF0FBECDBF87
:10049000DF91CF910C944D041F920F920FB60F92E3
:1004A00011242F933F938F939F93AF93BF9380918A
:1004B000290290912A02A0912B02B0912C02309136
:1004C000280223E0230F2D3720F40196A11DB11D32
:1004D00005C026E8230F0296A11DB11D2093280216
:1004E0008093290290932A02A0932B02B0932C02AE
:1004F00080912D0290912E02A0912F02B091300296
:100500000196A11DB11D80932D0290932E02A09300
:100510002F02B0933002BF91AF919F918F913F9185
:100520002F910F900FBE0F901F9018953FB7F89422
:1005300080912D0290912E02A0912F02B091300255
:1005400026B5A89B05C02F3F19F00196A11DB11D2E
:100550003FBFBA2FA92F982F8827820F911DA11D69
:10056000B11DBC01CD0142E0660F771F881F991FA6
:100570004A95D1F70895CF92DF92EF92FF92CF93F1
:10058000DF936B017C010E949602EB01C114D10440
:10059000E104F10479F00E9496026C1B7D0B683E29
:1005A0007340A0F381E0C81AD108E108F108C851EE
:1005B000DC4FECCFDF91CF91FF90EF90DF90CF90A9
:1005C0000895789484B5826084BD84B5816084BDCB
:1005D00085B5826085BD85B5816085BDEEE6F0E0BC
:1005E000808181608083E1E8F0E010828081826018
:1005F0008083808181608083E0E8F0E08081816099
:100600008083E1EBF0E0808184608083E0EBF0E0C8
:10061000808181608083E1E9F0E080818260808375
:10062000808181608083E0E9F0E080818160808367
:10063000E1EAF0E080818260808380818160808354
:10064000E0EAF0E0808181608083E1E2F1E0808196
:1006500082608083808181608083E0E2F1E080813C
:1006600081608083EAE7F0E080818460808380811C
:1006700082608083808181608083808180688083C4
:100680001092C1000895CF92DF92EF92FF920F93E4
:100690001F93CF93DF936C01EB017B01E40EF51EFA
:1006A00000E010E0CE15DF0561F06991D601ED9113
:1006B000FC910190F081E02DC6011995080F191FDA
:1006C000F1CFC801DF91CF911F910F91FF90EF9073
:1006D000DF90CF9008956115710579F0FB010190CD
:1006E0000020E9F73197AF01461B570BDC01ED9174
:1006F000FC910280F381E02D199480E090E0089550
:10070000DC01ED91FC910190F081E02D19940F93A3
:100710001F93CF93DF93EC016DE00E9480038C0167
:100720006AE0CE010E948003800F911FDF91CF917C
:100730001F910F9108950F931F93CF93DF93EC01B7
:100740000E946B038C01CE010E948703800F911FD2
:10075000DF91CF911F910F9108958F929F92AF9249
:10076000BF92CF92DF92EF92FF920F931F93CF939E
:10077000DF93CDB7DEB7A1970FB6F894DEBF0FBEFB
:10078000CDBF6C01142FE52FCB01022F19A222300F
:1007900008F40AE07E0121E2E20EF11C802E912C89
:1007A000A12CB12C612F7E2FA50194010E94D50BA5
:1007B000029F1019112481E0E81AF1081A3014F48C
:1007C000105D01C0195CF7011083122FE32FCA01DD
:1007D000232B242B252B31F7B701C6010E946B0375
:1007E000A1960FB6F894DEBF0FBECDBFDF91CF91BB
:1007F0001F910F91FF90EF90DF90CF90BF90AF903F
:100800009F908F900895CF92DF92EF92FF920F9377
:100810001F93CF93DF93EC016A017B012115310512
:1008200079F4E881F9810190F081E02D642FDF9166
:10083000CF911F910F91FF90EF90DF90CF9019947F
:100840002A303105E9F477FF1AC06DE20E94800377
:100850008C0144275527BA014C195D096E097F099F
:100860002AE0CE010E94AD03800F911FDF91CF914E
:100870001F910F91FF90EF90DF90CF9008952AE0A5
:10088000B701A601CE01DF91CF911F910F91FF908B
:10089000EF90DF90CF900C94AD030F931F93CF9305
:1008A000DF93EC019A01AB01770F660B770B0E9487
:1008B00003048C01CE010E948703800F911FDF91FA
:1008C000CF911F910F9108950E94E1020E940402AE
:1008D000C4EFD5E00E9412022097E1F30E94F405D4
:1008E000F9CFFC0124853585F901E05CFF4F80815B
:1008F0009181329620813181821B930B8F739927CE
:100900000895DC011C96ED91FC911D97DF01A05C20
:10091000BF4F2D913C91119712968D919C911197FB
:100920002817390739F08D919C91E80FF91F8081C4
:1009300090E008958FEF9FEF0895FC01A485B585A1
:10094000FD01E05CFF4F20813181329680819181F1
:100950002817390779F080819181A80FB91F8C91F0
:10096000208131812F5F3F4F2F73332731832083C5
:1009700090E008958FEF9FEF0895FC0181A18823F7
:1009800029F0A489B5898C9186FFFBCF11A2089527
:100990000F931F93CF93DF93FC01A685B7858D013D
:1009A000005C1F4FE8018881998101968F73992718
:1009B000AD014E5B5F4FEA012881398182179307B1
:1009C000D1F3E80128813981A20FB31F6C93A6856A
:1009D000B785A05CBF4F11969C938E93A689B7896B
:1009E0002C9181E090E0078C02C0880F991F0A9437
:1009F000E2F7822B8C9381E081A30488F589E02DB6
:100A000080818064808381E090E0DF91CF911F91AD
:100A10000F910895FB01E05CFF4F208131812F5F32
:100A20003F4F2F733327DB01AE5BBF4F4D915C917E
:100A30002417350741F040815181DB01A40FB51F18
:100A40008C9331832083089508951F920F920FB6DF
:100A50000F9211240BB60F922F933F934F935F93F6
:100A60006F937F938F939F93AF93BF93EF93FF9376
:100A70008091C00082FD07C08091C60065E974E0E6
:100A80000E940A0502C08091C600FF91EF91BF91BC
:100A9000AF919F918F917F916F915F914F913F9116
:100AA0002F910F900BBE0F900FBE0F901F901895B7
:100AB00008951F920F920FB60F9211240BB60F924A
:100AC0002F933F934F935F936F937F938F939F9356
:100AD000AF93BF93EF93FF938091C80082FD07C04F
:100AE0008091CE006DE074E00E940A0502C0809102
:100AF000CE00FF91EF91BF91AF919F918F917F9128
:100B00006F915F914F913F912F910F900BBE0F907E
:100B10000FBE0F901F90189508951F920F920FB659
:100B20000F9211240BB60F922F933F934F935F9325
:100B30006F937F938F939F93AF93BF93EF93FF93A5
:100B40008091D00082FD07C08091D60065E873E0F7
:100B50000E940A0502C08091D600FF91EF91BF91DB
:100B6000AF919F918F917F916F915F914F913F9145
:100B70002F910F900BBE0F900FBE0F901F901895E6
:100B800008951F920F920FB60F9211240BB60F9279
:100B90002F933F934F935F936F937F938F939F9385
:100BA000AF93BF93EF93FF938091300182FD07C015
:100BB000809136016DEF72E00E940A0502C08091BB
:100BC0003601FF91EF91BF91AF919F918F917F91EE
:100BD0006F915F914F913F912F910F900BBE0F90AE
:100BE0000FBE0F901F90189587E992E00E94710444
:100BF000892B11F00E94240585E792E00E94710480
:100C0000892B11F00E94580583E592E00E9471043F
:100C1000892B11F00E948C0581E392E00E947104FF
:100C2000892B11F00C94C00508951F920F920FB6F6
:100C30000F9211240BB60F922F933F938F939F9394
:100C4000EF93FF932091910430919204809193044B
:100C5000909194042817390731F48091C1008F7D59
:100C60008093C10014C0E0919304F0919404EF5A72
:100C7000FB4F2081809193049091940401968F738F
:100C8000992790939404809393042093C600FF9136
:100C9000EF919F918F913F912F910F900BBE0F90ED
:100CA0000FBE0F901F9018951F920F920FB60F92C4
:100CB00011240BB60F922F933F938F939F93EF9333
:100CC000FF932091090430910A0480910B049091C4
:100CD0000C042817390731F48091C9008F7D809367
:100CE000C90014C0E0910B04F0910C04E753FC4FD1
:100CF000208180910B0490910C0401968F739927A9
:100D000090930C0480930B042093CE00FF91EF91FD
:100D10009F918F913F912F910F900BBE0F900FBE1F
:100D20000F901F9018951F920F920FB60F921124DB
:100D30000BB60F922F933F938F939F93EF93FF9355
:100D400020918103309182038091830390918403E9
:100D50002817390731F48091D1008F7D8093D1001D
:100D600014C0E0918303F0918403EF5BFC4F20817A
:100D7000809183039091840301968F7399279093B8
:100D80008403809383032093D600FF91EF919F917A
:100D90008F913F912F910F900BBE0F900FBE0F9030
:100DA0001F9018951F920F920FB60F9211240BB639
:100DB0000F922F933F938F939F93EF93FF932091E5
:100DC000F9023091FA028091FB029091FC022817FF
:100DD000390731F4809131018F7D8093310114C046
:100DE000E091FB02F091FC02E754FD4F20818091DD
:100DF000FB029091FC0201968F7399279093FC025D
:100E00008093FB0220933601FF91EF919F918F9188
:100E10003F912F910F900BBE0F900FBE0F901F9020
:100E20001895CF92DF92EF92FF920F931F93CF937B
:100E3000DF93EC016A017B014115514E610571059B
:100E400009F1EC89FD8981E090E008A002C0880FDB
:100E5000991F0A94E2F7808360E079E08DE390E0E7
:100E6000A70196010E94D50B89019A010150110931
:100E70002109310936952795179507959801011590
:100E80001041A8F0EC89FD89108260E874E88EE1D9
:100E900090E0A70196010E94D50BDA01C9010197E4
:100EA000A109B109B695A795979587959C01E88901
:100EB000F9893083EA89FB89208319A2EE89FF89A9
:100EC000408181E090E09C010C8C02C0220F331F16
:100ED0000A94E2F7242B2083EE89FF8940819C014C
:100EE0000D8C02C0220F331F0A94E2F7242B2083BB
:100EF000EE89FF8940819C010E8C02C0220F331FB6
:100F00000A94E2F7242B2083EE89FF8920810F8C3D
:100F100002C0880F991F0A94E2F78095822380838C
:100F2000DF91CF911F910F91FF90EF90DF90CF90C5
:100F30000895CF92DF92EF92FF92E7E9F2E01382F9
:100F4000128288EEC82E83E0D82EE12CF12CC482C8
:100F5000D582E682F7826CE072E07183608385E976
:100F600094E09587848781E594E09787868785EC70
:100F700090E0918B808B84EC90E0938B828B80EC63
:100F800090E0958B848B81EC90E0978B868B82EC44
:100F900090E0918F808F86EC90E0938F828F44E079
:100FA000448F33E0358F27E0268F95E0978F81E0DF
:100FB00080A3E5E7F2E013821282C482D582E68242
:100FC000F78271836083ADE0B4E0B587A487A9ECB4
:100FD000B3E0B787A687ADECB0E0B18BA08BACECEB
:100FE000B0E0B38BA28BA8ECB0E0B58BA48BA9ECDE
:100FF000B0E0B78BA68BAAECB0E0B18FA08FAEECBF
:10100000B0E0B38FA28F448F358F268F978F80A348
:10101000E3E5F2E013821282C482D582E682F7828F
:1010200071836083A5E8B3E0B587A487A1E4B3E04A
:10103000B787A687A5EDB0E0B18BA08BA4EDB0E09B
:10104000B38BA28BA0EDB0E0B58BA48BA1EDB0E08B
:10105000B78BA68BA2EDB0E0B18FA08FA6EDB0E06C
:10106000B38FA28F448F358F268F978F80A3E1E3B4
:10107000F2E013821282C482D582E682F782718303
:1010800060836DEF72E07587648769EB72E0778744
:10109000668765E371E0718B608B64E371E0738B4D
:1010A000628B60E371E0758B648B61E371E0778B39
:1010B000668B62E371E0718F608F66E371E0738F1E
:1010C000628F448F358F268F978F80A3FF90EF908C
:1010D000DF90CF9008958091090590E020910A0556
:1010E000821B9109089590910A058091090598172E
:1010F00050F4E92FF0E0E55FFA4F208130E09F5F88
:1011000090930A0502C02FEF3FEFC9010895E091C7
:101110000A0580910905E81730F4F0E0E55FFA4F21
:10112000808190E008958FEF9FEF08950895CF920A
:10113000DF92EF92FF920F931F93CF93DF937C0187
:10114000262F972F8A018091E504882391F0C62FDE
:10115000D72F6E01C40ED51ECC15DD0571F0699137
:10116000D701ED91FC910190F081E02DC701199517
:10117000F3CF642F822F0E94F609C801DF91CF912F
:101180001F910F91FF90EF90DF90CF900895CF9334
:10119000DF931F92CDB7DEB769832091E504222348
:1011A000D1F02091E604203240F021E030E0FC0153
:1011B0003383228380E090E015C08091E704E82F1C
:1011C000F0E0E851FB4F998190838F5F8093E704B3
:1011D0008093E60405C061E0CE0101960E94F60905
:1011E00081E090E00F90DF91CF910895FC01138290
:1011F000128288EE93E0A0E0B0E084839583A6831A
:10120000B7838CE192E091838083089510920A0560
:10121000109209051092E7041092E6040C9442091A
:10122000862F413208F040E26BE075E00E946009D1
:1012300010920A058093090508950C94100981E025
:101240008093E504609308051092E7041092E60489
:1012500008950C941F090F93062F21E04091E60496
:1012600068EE74E0809108050E94A4091092E704DA
:101270001092E6041092E5040F91089589ED94E030
:101280000C94F6081092980581E0809396051092D0
:10129000950561E084E10E94A20B61E085E10E9476
:1012A000A20BE9EBF0E080818E7F808380818D7FCF
:1012B000808388E48093B80085E48093BC0008951F
:1012C000413208F03FC0909198059111FCCF91E018
:1012D00090939805209396052FEF20932B0510925D
:1012E0007005240F20936F059093970590919705B3
:1012F000880F892B8093970580919505813041F463
:1013000010929505809197058093BB0085EC01C0F4
:1013100085EE8093BC00809198058130E1F3809147
:101320007005841710F44091700521E735E0FB014A
:10133000D9018A2F821B841718F48D918193F9CFDC
:10134000842F089580E008950F93413208F046C03D
:10135000909198059111FCCF32E03093980500935D
:1013600096053FEF30932B051092700540936F0563
:10137000FB0161E775E0DB013A2F361B341718F4E7
:1013800031913D93F9CF1092970530919705880FD1
:10139000832B8093970580919505813041F41092BD
:1013A0009505809197058093BB0085EC01C085EE83
:1013B0008093BC00222321F0809198058230D1F3E4
:1013C00080912B058F3F79F080912B05803241F081
:1013D00080912B05803331F094E005C091E003C08B
:1013E00092E001C093E0892F0F910895613298F443
:1013F00020919805243089F460934D05FC012FE479
:1014000035E0D9018A2F821B861718F481918D93BC
:10141000F9CF80E0089581E0089582E0089585ED98
:101420008093BC008091BC0084FDFCCF1092980595
:10143000089585EC8093BC001092980508951F9242
:101440000F920FB60F9211240BB60F922F933F936A
:101450004F935F936F937F938F939F93AF93BF93BC
:10146000EF93FF938091B900887F803609F49CC088
:1014700068F5883209F45BC090F4803109F454C0F7
:1014800038F4882309F4F5C0883009F44DC0F5C05C
:10149000883109F44CC0803209F45DC0EEC080345C
:1014A00009F468C048F4803309F455C0883309F062
:1014B000E4C080932B05A8C0803509F44FC088355F
:1014C00009F45DC0883409F0D8C0D5C0883909F462
:1014D000C6C0A8F4883709F467C038F4883609F420
:1014E00063C0803709F460C0C8C0883809F4B7C049
:1014F000803909F45FC0803809F0BFC05BC0803B11
:1015000009F485C038F4803A09F466C0883A09F4D1
:101510007EC0B3C0803C09F4A6C0883C09F4A3C0D7
:10152000883B09F489C0A9C08091970510C09091AB
:10153000700580916F05981770F5E091700581E056
:101540008E0F80937005F0E0EF58FA4F8081809302
:10155000BB0085EC85C080932B058DC0E0917005A4
:1015600081E08E0F809370058091BB00F0E0EF5812
:10157000FA4F80839091700580916F056DC0E09166
:10158000700581E08E0F809370058091BB00F0E0C4
:10159000EF58FA4F80838091960581116CC081E0ED
:1015A0008093950584EA60C083E08093980510924B
:1015B0002C05CFCF80912C05803208F050C0E091EF
:1015C0002C0581E08E0F80932C058091BB00F0E00C
:1015D000E35DFA4F8083BDCF80912C05803230F4DB
:1015E000E0912C05F0E0E35DFA4F10820E940F0AB3
:1015F00060912C0570E0E0919105F09192058DE2EB
:1016000095E0199510922C050E94190A36C084E0C5
:101610008093980510924E0510924D05E091930528
:10162000F0919405199580914D05811105C081E0D7
:1016300080934D0510924F05E0914E0581E08E0F8D
:1016400080934E05F0E0E15BFA4F80818093BB0010
:1016500090914E0580914D05981708F47ACF85E852
:101660008093BC000AC085EC8093BC001092980562
:1016700004C010922B050E940F0AFF91EF91BF91B9
:10168000AF919F918F917F916F915F914F913F911A
:101690002F910F900BBE0F900FBE0F901F901895BB
:1016A00090E0FC013197E131F10508F04AC088274C
:1016B000EE58FF4F8F4F0C94F70B809180008F777F
:1016C00003C0809180008F7D80938000089584B551
:1016D0008F7702C084B58F7D84BD08958091B0005E
:1016E0008F7703C08091B0008F7D8093B000089504
:1016F000809190008F7707C0809190008F7D03C00C
:1017000080919000877F8093900008958091A00041
:101710008F7707C08091A0008F7D03C08091A000CB
:10172000877F8093A0000895809120018F7707C064
:10173000809120018F7D03C080912001877F80935D
:10174000200108951F93CF93DF93282F30E0F901F4
:10175000EE57FE4F8491F901E853FE4FD491F90101
:10176000E25FFD4FC491CC23C9F0162F81110E9476
:10177000500BEC2FF0E0EE0FFF1FEC5AFD4FA59140
:10178000B4918FB7F894111105C09C91ED2FE0959D
:10179000E92302C0EC91ED2BEC938FBFDF91CF9149
:1017A0001F910895F8940C94FF0BA1E21A2EAA1B26
:1017B000BB1BFD010DC0AA1FBB1FEE1FFF1FA21701
:1017C000B307E407F50720F0A21BB30BE40BF50BFE
:1017D000661F771F881F991F1A9469F76095709587
:1017E000809590959B01AC01BD01CF010895EE0F4E
:1017F000FF1F881F8BBF0790F691E02D1994F89476
:02180000FFCF18
:101802002D2D2D2D2D2D2D0000000000C804430389
:1018120071049D048104BD0400000000C7089708FC
:081822006B08730887089608A3
:00000001FF
